:020000040800F2
:10000000B80B002081020008B7330008AD260008B5
:10001000B3330008BD1E00081148000800000000AE
:100020000000000000000000000000001141000876
:100030007D20000800000000F93F00087942000818
:100040009B0200089B0200089B0200089B0200081C
:100050009B0200089B0200089B0200089B0200080C
:100060009B020008A1230008DD2300089B02000872
:100070009B0200089B0200089B0200089B020008EC
:100080009B0200089B0200089B0200089B020008DC
:100090009B0200089B0200089B0200089B020008CC
:1000A0009B0200089B0200089B0200089B020008BC
:1000B000DD420008994300089B0200089B020008EB
:1000C0009B0200089B0200089B0200089B0200089C
:1000D0009B020008E5450008014600089B02000855
:1000E0009B0200089B0200089B0200089B0200087C
:1000F0009B0200089B0200089B0200089B0200086C
:100100009B0200089B0200089B0200089B0200085B
:100110009B0200089B0200089B0200089B0200084B
:100120009B0200089B0200089B0200089B0200083B
:1001300000F002F800F094F80AA090E8000C824465
:100140008344AAF10107DA4501D100F089F8AFF242
:10015000090EBAE80F0013F0010F18BFFB1A43F0A5
:1001600001031847E470000004710000103A24BF36
:1001700078C878C1FAD8520724BF30C830C144BF0C
:1001800004680C607047000000230024002500264E
:10019000103A28BF78C1FBD8520728BF30C148BFEA
:1001A0000B6070476E2900F0E783702900F05587D7
:1001B000662905F0C980652905F0C680672905F024
:1001C000C3806129AFF3008003681B0A28BF41F098
:1001D0008001692900F02481642900F021817529BA
:1001E00000F01E816F2900F0E386782900F0218756
:1001F000E92900F07D86E42900F07A86F52900F0EF
:100200007786EF2900F0E086F82900F02087036860
:10021000DB0928BF41F08001632900F0FE857329C6
:1002200000F00386E32901F06F80F32901F0748068
:10023000002070471FB59DE8030000F0D5FA00F0DC
:10024000B5FF04000020002104F054FE401C606053
:100250000020002104F038FEE0601FBD10B510BD85
:1002600001F044F91146FFF7E5FF04F01BFD01F032
:1002700070F903B4FFF7F2FF03BC01F0DDF90000F1
:100280000948804709480047FEE7FEE7FEE7FEE72A
:10029000FEE7FEE7FEE7FEE7FEE7FEE70448054966
:1002A000054A064B704700007D42000831010008F6
:1002B000B8050020B80B0020B8070020B8070020C0
:1002C00070B5064600F070FA056806F10B0020F0E4
:1002D0000704B4429CBF002070BD2B466A68BAB1C7
:1002E0001068A04210D304F1080188423CBF506856
:1002F000586007D35168101941601168091B0160EB
:1003000058601460101D70BD13465268002AE7D172
:100310002146284600F054FA0028DED170BD70B5A1
:100320000446051F00F040FA0068002C14BF446822
:1003300070BD002C18BFAC423CBF20466468F8D3A7
:1003400001680A18AA4218BF456003D12A68054609
:100350001144016028684119A1421CBF6C6070BD46
:100360006168696021680844286070BD7CB51D46DD
:1003700016460C00009001D02044401E074B7B44E1
:100380002A4669460190304600F01DFD05461CB125
:100390000020694600F02AFD28467CBD750A000051
:1003A0000FB41CB5084B06AA7B446946009005981B
:1003B00000F009FD04460020694600F017FD2046C4
:1003C0001CBC5DF814FB0000410A000070B50C462F
:1003D0000546012A05D02878800600D5EA69002361
:1003E00002E0012305E05B1C934202D2E05C00289E
:1003F000F9D1A869E618C01AA861286A18442862C9
:10040000284600F027FA04E0D5E9012114F8010B91
:100410009047B442F8D3284600F032FA70BD00008D
:100420002DE9F0410646002410687529314616A5CD
:1004300010D000F036FA002802DA404213A507E097
:1004400031688A0701D512A502E0490704D511A534
:10045000012401E000F02EFA00210A2206F124070F
:1004600009E0B0FBF2FCB0FBF2F302FB1C00303001
:1004700078541846491C0028F3D123462A463046B2
:10048000BDE8F04100F01FBA000000002D000000A0
:100490002B000000200000002DE9F05F8946044693
:1004A0004FF0000ADFF874B1FB44C0F820A02046EA
:1004B000E1688847002874D0252806D0D4E90121B6
:1004C0009047206A401C2062F1E700265F462046E4
:1004D000E16888472028054607DB312D05D27819C9
:1004E00010F8200C08B10643F1E7B00701D526F05B
:1004F0000406C4F81CA00027C4F818A02A2D09D0AF
:10050000284604F086FA38B304EB8708303DC8F873
:10051000185019E059F8041B204604EB870291613A
:10052000E1688847012F054618D1E069002820DAE4
:1005300026F020061DE0D8F8180000EB800005EB3F
:1005400040003038C8F818002046E1688847054662
:1005500004F05FFA0028EED1012F0AD02E2D08D129
:100560002046E16888477F1C0546022F46F020069A
:10057000C4DBA069002803DA404246F00106A0610E
:10058000F00701D026F010066C2D0BD0682D09D095
:100590004C2D39D06A2D35D0742D35D07A2D33D0ED
:1005A00016E038E0E1682F4620468847B842054605
:1005B00009D16C2F26D04FF48060E16806432046B5
:1005C0008847054604E06C2F1AD04FF4807006432C
:1005D0000DB3A5F14100192802D8203546F4006674
:1005E0004A462946204626604E46FFF7DBFD80B18D
:1005F00001280BD0F61D26F0070000F1080956E788
:100600004020E4E78020D8E70020D6E706F104097F
:100610004DE7284652E7206ABDE8F09FB06C000025
:1006200070B5064600F0C4F80468054630460A2254
:10063000002100F01DFD2C6070BD401ECAB210F8F4
:10064000011F8A4202D00029F9D10020704710B55D
:10065000431E13F8014F002CFBD105E011F8014BAC
:10066000002C03F8014B03D0521EF7D20021197061
:1006700010BD30B505460B462A4613F8014B12F85B
:10068000010B08B1A042F8D01CB1002802D06D1CAB
:10069000F1E7284630BD10B5431C02E010F8011BFD
:1006A00071B18107FAD14FF0013202C88C1A8C4324
:1006B00014EAC211F9D0C01A0A0603D0C01E10BD38
:1006C000C01A10BD0A0401D0801E10BD0902FCD062
:1006D000401E10BD032A40F2308010F0030C00F0E1
:1006E000158011F8013BBCF1020F624498BF11F86C
:1006F00001CB00F8013B38BF11F8013BA2F1040225
:1007000098BF00F801CB38BF00F8013B11F003039C
:1007100000F0E684083AC0F0088051F8043B083A3B
:1007200051F804CBA0E80810F5E7121D5CBF51F8A2
:10073000043B40F8043BAFF30080D20724BF11F81C
:10074000013B11F801CB48BF11F8012B24BF00F881
:10075000013B00F801CB48BF00F8012B70474FF078
:1007600000020429C0F0128010F0030C00F0EC84A9
:10077000CCF1040CBCF1020F18BF00F8012BA8BF8C
:1007800020F8022BA1EB0C0100F0DEBC5FEAC17C7B
:1007900024BF00F8012B00F8012B48BF00F8012B03
:1007A00070477047704770470048704760050020E9
:1007B00000487047580500207047704770477047E1
:1007C00038B504460A4600206946AFF30080002889
:1007D00008BF38BD02460099204600F0EBFC01201E
:1007E00038BD012000F07ABEF8B5AFF300800546B1
:1007F00000200C46102000BF0646A819A0420DD9C3
:10080000324669460020AFF30080070008BF00F0C1
:1008100065FE0098A04218BF0546C419FFF7C4FF43
:1008200005600746F01D20F007004619284600F035
:100830000AF8B44208BFF8BDA21B31463868BDE8CB
:10084000F84000F0B7BC00210160C0E9011070471A
:100850001020704770B5044685690068C10601D54F
:10086000302600E02026C00707D070BDD4E9012162
:1008700030469047206A401C20626D1EF6D570BD40
:1008800070B5044685690078C00707D170BDD4E90A
:10089000012120209047206A401C20626D1EF6D561
:1008A00070BD09684A0501D540B27047C905FCD53D
:1008B00000B2704709684A0501D5C0B27047C90542
:1008C000FCD580B270472DE9F0470D469946924617
:1008D000044600F124080168880604D5E06921F087
:1008E0001001216000E00120A84201DD471B00E06B
:1008F0000027A1697A1902EB0900081AA061207883
:10090000C00602D42046FFF7A5FF002608E0D4E980
:1009100001211AF806009047206A401C761C2062CC
:100920004E45F4DB2078C0060AD52046FFF792FF3B
:1009300006E0D4E9012130209047206A401C206263
:10094000381EA7F10107F4DC07E0D4E9012118F80B
:1009500005009047206A401C2062281EA5F1010571
:10096000F3DC2046FFF78CFF2078000602D502203A
:10097000BDE8F0870120FBE711680268006A5305B3
:1009800001D508700AE0D30501D5088006E01306FA
:1009900003D5C217C1E9000200E0086001207047DA
:1009A00070472DE9FF4F0C461E464FF0FF378BB0C6
:1009B000D2E90001DDF860800A908A46C1F30A5549
:1009C00005B93D46002108464FF00000BAF1000F7E
:1009D00000F4400005DA00EB80004FF4400101EA2A
:1009E00050004FEA9059B9F1010F00DDB9460A985D
:1009F00050EA4A000ED044F61050A5F2FF354543A8
:100A00002F14B8F1000F1ED07542291E1EDDC9F14A
:100A100000021CE0B8F1010F4FF0000001D03021BE
:100A200003E0F24305E02154401CB042FBDB3046BA
:100A30000022002121540B99C1F80880C1E900204F
:100A40000FB0BDE8F08FBD1B6D1CDEE74A4600DA33
:100A5000694206A800F0B4FC06AB93E8070003ABBC
:100A600083E8070050460A9900F00CFE8DE8070065
:100A7000A0F500501F3800900398002D09DD42F2C8
:100A80001F014A46084403A90390684601F06BF829
:100A900008E0A0F500504A461F3803A903906846B5
:100AA00001F075F88DE807000004000C03D04FF04A
:100AB000FF30410800E01046B8F1000F03D00022DB
:100AC000009215461EE0751E05D400F08DFB3032F5
:100AD00062556D1EF9D5B3460122084302D00022AB
:100AE0007F1C04E02078302801D100227F1E002ADC
:100AF000099786D01DE0112D07DA00F075FB303222
:100B000062556D1C50EA0102F5D1084302D00098ED
:100B1000C8B10EE00021681E05E0235C625C6354EE
:100B20002254401E491C8142F7DBAB46A81B401EE5
:100B30000990002004F80B000B98099AC0F808806F
:100B4000C0E9002B7CE711264FF0000859E72DE99A
:100B5000F04F88460446D21D22F0070191B0D1E93A
:100B60000001CDE90A0103F040FF02460B98C00FD7
:100B700001D02D2007E02068810701D52B2002E05D
:100B8000202101EAC000032A099001D0072A05DBD1
:100B900003464146204600F06DFB0BE120788006BD
:100BA00001D5E06900E00620B8F1650F814606D066
:100BB000B8F1660F18D0B8F1670F70D131E000209E
:100BC000B9F1110F009001DB112301E009F10103DC
:100BD0000AAA01A90CA8FFF7E4FEDDE90C700026C3
:100BE00009F10105834647E001204B4600904FF094
:100BF00000470AAA01A90CA8FFF7D3FEDDE90DB052
:100C00000C995D46002610B909F101000D18B9EBE9
:100C1000050003D4C0F1FF3609F10105A5EB090079
:100C20002BE0B9F1010F01DA4FF001090020B9F111
:100C3000110F0090484601DD112300E003460AAA87
:100C400001A90CA8FFF7ADFEDDE90C704D460026AA
:100C50008346207800070AD4AB4500DA5D4601A838
:100C6000012D04DD411911F8011C302907D04F4531
:100C700002DA17F1040F04DA012082460FE06D1E3C
:100C8000EEE7002F02DCED1B3E4403E0781CA84297
:100C900000DD7D1CB81B00F1010A4FF000472078F1
:100CA000000703D4AA4501DB4FF0FF3A0021B7F15A
:100CB000004F0DF143088DF8431024D002202B2360
:100CC000002F01DA7F422D230A21021EA0F101002C
:100CD00000DC5FB197FBF1FC97FBF1F201FB1C7CA0
:100CE00017460CF1300C08F801CDEEE7A8F1010031
:100CF00003702188090501D5452100E06521A0F197
:100D0000010800F8011C09980FA9A1EB0807FF1DB5
:100D100000B10120411901EBEA70A1693844081AB9
:100D2000401EA0612078C00602D42046FFF792FD45
:100D3000099828B1D4E901219047206A401C20621B
:100D40002078C00622D52046FFF784FD1EE0002E45
:100D500004DBB34502DD01A8805D00E03020D4E96A
:100D600001219047206A401C2062761CAAF10100F4
:100D70005FEA000A0AD100F019FAC0680168405C15
:100D8000D4E901219047206A401C2062281EA5F169
:100D90000105DCDC07E0D4E9012118F8010B9047DC
:100DA000206A401C2062381EA7F10107F3DC2046B0
:100DB000FFF766FD032011B043E6000001694A1CFD
:100DC00002610878704700B58FB0CDE9013100218C
:100DD000059105497944CDE9031011466846FFF7AE
:100DE0005BFB0FB000BD0000E5FFFFFF0A6802F8E3
:100DF000010B0A607047D1E900239A4202D2531CCA
:100E00000B601070704710B5436913B1AFF30080E9
:100E100001E0FFF7DBFA012010BD127800F1240198
:100E20000A7000224A700122EDE711684FF0FF328C
:100E3000E9E700002DE9FF5F15468A460446DFF822
:100E4000AC80F8440027D8E900103E46CDE90010F8
:100E500010E03AF816106A4602A800F01FFB411C89
:100E600007D02178890603D5E269391891420DD857
:100E70000744761C2078800602D5E069B84205DD7B
:100E8000AE42E6DB3AF816000028E2D1A069C01BAA
:100E9000A0612046FFF7DEFCD8E90010CDE9001084
:100EA000002017E03AF818106A4602A800F0F6FA97
:100EB000B0F1FF3F81460BD000250DF1080B05E096
:100EC000D4E901211BF8050090476D1C4D45F7D36F
:100ED00008F10100B0428046E4DB206A3844206219
:100EE0002046FFF7CDFCBDE8FF9F00002A6300000D
:100EF0002DE9F0418046D21D22F007020025D2E9FB
:100F00000002F52915A614D0011E72F1000106DABF
:100F10000023D0EB030063EB020211A608E0D8F82F
:100F200000108B0701D50FA602E0490701D50EA6D8
:100F300001251146002408F1240704E000F054F9CB
:100F400030323A55641C50EA0102F7D12B46324642
:100F500021464046BDE8F041FFF7B5BC0000000067
:100F60002D0000002B0000002000000030B4002104
:100F700000F1240408E002F00705D208303542EA07
:100F80004372DB086554491C52EA0305F3D1046837
:100F9000002310A2250708D504F020040C4304D038
:100FA000C46901230CA2641EC46130BCFFF78BBC72
:100FB00010B5044621461068FFF77CFC0246204627
:100FC000BDE810400023D1E7D21D22F00701D1E98E
:100FD0000023CBE70000000030000000F0B40D4615
:100FE0000188090502D5214C7C4402E01F4C7C4459
:100FF0000E34002100F1240608E002F00F07120968
:10100000E75D42EA03721B097754491C52EA030761
:10101000F3D102780023120704D5702D06D009B150
:10102000022311342246F0BCFFF74DBC01231034DB
:10103000F8E770B504460D4621461068FFF73AFC04
:10104000024629462046BDE870400023C6E7D21D6F
:1010500022F00703D3E90023C0E70368126843F0D6
:10106000200303600823C3610023B7E78C610000FD
:101070002DE9F04791460F4680460446002614F8B5
:10108000015B2DB100F08AF80068405DC007F6D121
:101090002B2D02D02D2D18D0641E4A4639462046ED
:1010A00000F03EF927B13968A14201D1C7F80080AC
:1010B0004FF0020471050BD54042002803DDFFF715
:1010C00077FB0460A007BDE8F08746F48066E4E79C
:1010D0000028F8DAFFF76CFB04606FF00040F2E7DD
:1010E00010B5203AC0F00B80B1E81850203AA0E8C3
:1010F0001850B1E81850A0E81850BFF4F5AF5FEAF7
:10110000027C24BFB1E81850A0E8185044BF18C9A9
:1011100018C0BDE810405FEA827C24BF51F8043B50
:1011200040F8043B08BF7047D20728BF31F8023BA4
:1011300048BF11F8012B28BF20F8023B48BF00F838
:10114000012B70474FF0000200B5134694469646B7
:10115000203922BFA0E80C50A0E80C50B1F12001CA
:10116000BFF4F7AF090728BFA0E80C5048BF0CC078
:101170005DF804EB890028BF40F8042B08BF7047D6
:1011800048BF20F8022B11F0804F18BF00F8012B48
:1011900070470000004870475805002010B500F067
:1011A00005F8001D10BD00BF4D3D00000048704710
:1011B00078050020034640688C46002818BF884206
:1011C0003CBF03464068F8D318681844884207D0EB
:1011D0000CF1030020F00700001D411A521A0146CD
:1011E000081D0A60FFF79BB830B5B0F10A024FEA5C
:1011F000900E71F100034EEA817EB0EB0E0061EBC0
:1012000091014FEA101E4EEA017E10EB0E0041EBF9
:1012100011114FEA102E4EEA016E10EB0E0041EB59
:1012200011214FEA104E4EEA014E10EB0E0041EB39
:101230001141401841F100014FEAD00040EA4170ED
:101240004FEAD10110EB80054FEA810444EA907423
:1012500044EB01046D1944EB0404521BA3414FF00D
:10126000000348BF0A3200D530BD401C41F10001E7
:1012700030BD00002DE9F0411F46044603260168F9
:10128000072A01F4006004DB08B116A505E016A5E5
:1012900003E008B115A500E015A521F010002060BD
:1012A000A069C01EA0610FB1401EA0612046FFF7DB
:1012B000D1FA4FB1D4E9012138469047206A401C49
:1012C0002062C01C206206E0206AFAE7D4E901210E
:1012D00015F8010B9047761EF8D22046FFF7D0FA9A
:1012E000BDE8F0814E414E006E616E00494E4600F1
:1012F000696E660010B5436913B1AFF3008001E079
:10130000FFF798FD012010BD128800F124018284AE
:101310000022C2840122EDE711684FF0FF32E9E7B5
:101320002DE9F05F824615468B4600270AF101043D
:10133000B9460078302801D09DB113E014F8010BB4
:101340000127782803D0582801D045B10AE00DB113
:10135000102D07D1002714F8010B102502E00825F5
:1013600000E00A250026B0460EE005FB080005FB5C
:1013700006F101271FFA80F801EB1046B6F5803F11
:1013800000D3B94614F8010B294600F0D4F8002820
:10139000EBDABBF1000F05D00FB1641E00E054463C
:1013A000CBF80040B9F1000F06D0FFF701FA022197
:1013B0000160C81EBDE8F09F48EA0640FAE7000059
:1013C0002DE9F047814616468AB0334878440DC867
:1013D0008DE80D0030487844801C03AC0DC884E8CB
:1013E0000D0041F69B300844372190FBF1F290FB51
:1013F000F1F5A5F1800501FB12041B3C02D5644206
:10140000012000E00020DFF890A080460027FA4489
:10141000AAF1BE0A0DE0E00709D03246684607EBA4
:1014200047010AEB810100F0B2FB8DE80700641070
:101430007F1C002CEFD1184F7F44AC3F18E0E80729
:1014400014D007EB04100DF1180A90E80E008AE89A
:101450000E00C068F04201D198190890324606A9E2
:1014600003A800F094FB03AB83E807006D10641C35
:10147000002DE4D132466946B8F1000F03A802D02E
:1014800000F071FB01E000F082FBC9E90001C9F83E
:1014900008200AB0BDE8F0874C5E000070B5164623
:1014A0000C460546FFF77AFE036893F80101012810
:1014B00006D0FF2C0FD8185D68B101202C7070BDCC
:1014C000D3F807013246214603F2071303442846A6
:1014D000BDE8704018474FF0FF3070BD10B500F008
:1014E00043F8BDE8104000F03AB870477546FFF782
:1014F00051FEAE4605006946534620F0070085467A
:1015000018B020B5FEF7CAFEBDE820404FF0000637
:101510004FF000074FF000084FF0000B21F00701DB
:10152000AC46ACE8C009ACE8C009ACE8C009ACE81E
:10153000C0098D4670473A2800D2303820F020028A
:10154000412A01D3A2F13700884201D34FF0FF3086
:1015500070470446AFF300802046FEF78AFE00285D
:1015600001D000F069B8704710B5012805D00021FE
:1015700003A000F067F8012010BD09A1F8E7000002
:1015800053494752544D454D3A204F7574206F666C
:101590002068656170206D656D6F727900000000D4
:1015A0003A2048656170206D656D6F727920636FB8
:1015B00072727570746564004FF0013C50F8042B32
:1015C00051F8043B9A4221D1A2EB0C03934313EA56
:1015D000CC1317D150F8042B51F8043B9A4215D183
:1015E000A2EB0C03934313EACC130BD150F8042B5A
:1015F00051F8043B9A4209D1A2EB0C03934313EA3E
:10160000CC13DBD04FF00000704700BFD01A01BAF6
:10161000B1FA81F101F0180122FA01F0CB40C1F1D9
:101620002001DBB2C0B2C01A2CFA01F3D11A9143E7
:1016300011EAC311E6D1704701491820ABBEFEE79D
:101640002600020070B505460C460A2000E06D1C1D
:1016500000F011F835B128780028F8D102E0641CB8
:1016600000F009F814B120780028F8D1BDE87040E6
:101670000A20AFF3008008B569468DF8000003200A
:10168000ABBE08BD5FEA400C08BF91F0000F4FEA07
:101690008C234FEAC12243EA51514FEA1C5018BF34
:1016A00000F5F0404FEA300018BF41F000415FEA1A
:1016B0006C5C00F02980BCF1FF3F08BF40F0804027
:1016C0007047130C06BF12044FF0100C4FF0000CC3
:1016D000130E04BF12020CF1080C130F04BF120109
:1016E0000CF1040C930F04BF92000CF1020CD30F09
:1016F00004BF52000CF1010C11464FF00002A0F1A2
:101700001F00A0EB0C00704711F0004F08BF70479E
:1017100031F000413FF4D5AF0B0C06BF09044FF088
:10172000100C4FF0000C0B0E04BF09020CF1080C5A
:101730000B0F04BF09010CF1040C8B0F04BF8900CF
:101740000CF1020CCB0F04BF49000CF1010CCCF1E1
:101750002003A0EB0C0022FA03F302FA0CF241EA98
:10176000030100F10100704720F07F4C80EA030084
:1017700023F07F47ACEB070303F57C5300F00040F8
:1017800003F1FF032DE980494FEA154B09B44FEAF5
:10179000144325EA0B4E24EA03480FF2042606EB15
:1017A000132749083E785FEA320203FB0667C7F554
:1017B000000707FB06F64FEA54374FEAD64606F114
:1017C000020607FB066CCCF1005C4FEA1C472CEAD2
:1017D000074C07FB06F40CFB06F504EB15464FEA35
:1017E000961634BF00204FF000404FEAD13706FB79
:1017F00007FC4FEA1C4C0CFB0BF7D21B03FB0CF74E
:1018000061EB07010CFB0EF7B0EB074072EB1742E0
:101810000CFB08F734BFA2EB0742B2EB074261EBC7
:1018200017414FEA0C444FEA910706FB07FC4FEAC9
:101830001C4C0CFB0BF7B0EBC74072EB573203FBB1
:101840000CF734BFA2EBC742B2EBC74261EB573192
:101850000CFB0EF7B0EBC70072EB57720CFB08F7EE
:1018600034BFA2EBC702B2EBC70261EB5771039F13
:101870004FEA816141EA921104EBCC044FEAD1377F
:101880004FEA826206FB07FC42EA90124FEA806050
:101890004FEA1C4C0CFB0BF7D21B03FB0CF761EB64
:1018A00007010CFB0EF7B0EB074072EB17420CFB85
:1018B00008F734BFA2EB0742B2EB074261EB1741D6
:1018C0004FEA8C554FEA910704EB9C2406FB07FC7A
:1018D0004FEA1C4C0CFB0BF7B0EBC74072EB5732D6
:1018E00003FB0CF734BFA2EBC742B2EBC74261EB7C
:1018F00057310CFB0EF7B0EBC70072EB57720CFBC5
:1019000008F734BFA2EBC702B2EBC70261EB577115
:1019100015EB4C254FEA816141EA92114FEA826250
:101920004FEAD13742EA901206FB07FC44F100046B
:101930004FEA80604FEA1C4C0CFB0BF7D21B03FBF9
:101940000CF761EB07010CFB0EF7B0EB074072EBF5
:1019500017420CFB08F734BFA2EB0742B2EB074279
:1019600061EB174115EB1C154FEA813141EA9241B9
:101970004FEA823242EA90424FEA80304FEA0C76D8
:1019800044F1000448EA03434EEA0B484FF0000ECE
:10199000B2EB080C71EB030724BF624639464EEBED
:1019A0000E0E4FF0000B0018524149414BEB0B0B50
:1019B000B2EB080C71EB03077BF1000B24BF62460E
:1019C00039464EEB0E0E4FF0000B001852414941C4
:1019D0004BEB0B0BB2EB080C71EB03077BF1000B2D
:1019E00024BF624639464EEB0E0E51EA020718BF7D
:1019F00046F0010616EB0E7655F1000254F1000197
:101A000003D5BDE88901BDE80088BDE88901BDE8CE
:101A10000048B619524141EB0101A3F1010370479F
:101A200080807F7E7D7C7B7A79787776767574731B
:101A3000727171706F6E6E6D6C6C6B6A6A696868DA
:101A4000676666656464636362616160605F5F5E70
:101A50005E5D5D5C5C5B5B5A5A59595858575756E6
:101A6000565555555454535352525251515050504B
:101A70004F4F4F4E4E4D4D4D4C4C4C4B4B4B4A4A9D
:101A80004A494949484848474747474646464545E1
:101A9000454444444443434343424242424141411A
:101AA000002B26D4770021D01CB54FEA370703B4AA
:101AB0004FF010004FF010014FF000000FBCBDE8D8
:101AC00010400BF1010BBBF1010F08BF5FEA1707D4
:101AD00022BF12F1010211F101014FF0004143F167
:101AE000000300F0004043EA00007047F9D35708B4
:101AF000DAE746EA064613F1400F4FEA16461FDDC5
:101B000013F1200FDFBF16430A46002120335B424A
:101B1000C8D0C3F1200746EA064602FA07F74FEAA3
:101B2000164646EA0706C3F1200722FA03F201FA35
:101B300007F721FA03F14FF0000342EA0702B1E789
:101B400046EA020646EA06464FEA164646EA010615
:101B5000BCBF46EA0646360C4FF000034FF00002C9
:101B60004FF000019EE72DE9C048934630B491E85C
:101B7000380007C831EA400C48BF34EA430C03D5AB
:101B8000FFF7F2FDFFF78CFFF0BCBDE800882DE900
:101B9000C048934630B491E8380007C810F0804F31
:101BA00008BF13F0804F03D100F005F8FFF778FF6E
:101BB000F0BCBDE8008820F07F4780EA030023F0F6
:101BC0007F4C07EB0C03A3F57C5300F00040A3F11E
:101BD000FE0392F0000F00F0B38095F0000F00F0CC
:101BE00077802DE901494FEA11404FEA144621EA76
:101BF000004800FB06FC24EA064708FB06F607FB44
:101C000008F800FB07F718EB06484CEB164C4FEAB8
:101C1000124B18EB07484FEA15464CEB174022EAE7
:101C20000B4E0BFB06FC25EA06470EFB06F607FBF0
:101C30000EFE0BFB07F71EEB064E4CEB164C4FF05F
:101C400000061EEB074E4CEB174B18EB0B0840F150
:101C5000000018EB0E0B58EB000840F100008F1A43
:101C60004FF000013CBFC943661B14BFB5EB040C29
:101C700000213CBFC943F61B4FEA17444EEA8E0EC3
:101C800027EA04454FEA1C4704FB07622CEA074C8D
:101C900005FB07F70CFB05F604FB0CFC16EB0746EF
:101CA00042EB174216EB0C4642EB1C421BEB0606BE
:101CB00058EB0202414146EA9E0601D5BDE8018982
:101CC000B619524141EB0101A3F10103BDE80189BD
:101CD0004FEA14454FEA114724EA054621EA074C2A
:101CE00005FB07F406FB07F70CFB06F105FB0CFCF4
:101CF00011EB074144EB17444FEA124711EB0C413B
:101D000044EB1C4422EA074C05FB07F206FB07F7ED
:101D10000CFB06F605FB0CFC16EB074642EB1742E4
:101D200016EB0C4642EB1C456A1854F1000148BF03
:101D30007047B619524141EB0101A3F1010370470D
:101D400095F0000F37D04FEA11424FEA144721EACD
:101D5000024624EA074C02FB07F106FB07F70CFBDF
:101D600006F402FB0CFC14EB074441EB17414FEA6D
:101D7000154714EB0C4441EB1C4125EA074C02FBD0
:101D800007F506FB07F70CFB06F602FB0CFC16EB4F
:101D9000074645EB174516EB0C4645EB1C4212195E
:101DA00051F1000148BF7047B619524141EB0101A2
:101DB000A3F1010370474FEA14454FEA114724EAA3
:101DC000054621EA074C05FB07F106FB07F70CFB6C
:101DD00006F24FF0000605FB0CFC12EB074241EB4C
:101DE000174112EB0C4251EB1C4148BF704792184F
:101DF00041EB0101A3F101037047000008B5012187
:101E0000082002F00BF94FF48070ADF800001020AC
:101E10008DF8030003208DF802006946044800F0A5
:101E2000ADFB4FF48071024800F03CFC08BD00009F
:101E3000000C014010B5044602F0EEFE462002F010
:101E4000C1FE02F011FF012800D110BD204602F0B2
:101E5000B9FE02F009FF012801D10220F5E702F0E6
:101E6000F3FE0020F1E710B500F022FC00F004F8CA
:101E70001020FFF7DFFF10BD10B50120FFF7DAFFDC
:101E800010BD10B5002402F0C7FE472002F09AFEF4
:101E900002F0EAFE012801D1002010BD02F070FE20
:101EA000044602F02BFE02F06BFE00EB042084B22D
:101EB00002F052FE02F0C8FE2046EEE700BFFEE749
:101EC00010B500241548406820F47040134948605C
:101ED0000846406840F40040486004E0601CC4B21A
:101EE000012002F0E5FD0E48006808B1642CF5DB26
:101EF000642C01DB012010BD002404E0601CC4B28E
:101F0000012002F0D5FD0648006808B9642CF5DB15
:101F1000642C01DB0120EEE70020ECE7002001400B
:101F20002C01244208B50121080202F077F84FF491
:101F30000060ADF8000010208DF8030003208DF83C
:101F400002006946064800F019FB4FF4006104489E
:101F500000F0AAFB00F072F8FFF7B2FF08BD000026
:101F60000020014010B5002404E0601CC4B2012030
:101F700002F09EFD0D48006808B1642CF5DB0024DA
:101F800004E0601CC4B2012002F092FD0748006822
:101F900008B9642CF5DB282002F08AFD03480068AC
:101FA00008B1012010BD0020FCE700002C012442F4
:101FB00070B50024002506E06006040EFFF7D2FF8E
:101FC0000443681CC5B2082DF6DB204670BD2DE920
:101FD000FC4105460E461746984600F02FF8FFF7DD
:101FE0006FFF30BB002405E0FFF7E2FF0DF80400AF
:101FF000601CC4B2052CF7DB9DF800009DF80110B1
:1020000008449DF8021008449DF8031008449DF808
:102010000410884210D19DF8000028709DF801003E
:1020200030709DF8020038709DF8030088F80000B9
:1020300002E00120BDE8FC810020FBE710B50C4860
:10204000406820F470400A4948600846406840F4FF
:1020500040504860002007490860142002F002FD4B
:1020600001200549C1F8AC011E2002F021FD10BD80
:1020700000200140AC0124420000244270470000CF
:1020800010B580210348FEF76AFB00200249088052
:1020900010BD0000D80400203C00002070B50546AB
:1020A000002400BF00F062F980B90DA10E48FEF7D0
:1020B000E0FA044654B13A212046FEF7BEFA04463F
:1020C00014B1641C204670BD0020FCE7052002F01E
:1020D000C9FC681E85B2002DE4DC0020F3E7000097
:1020E0004950442C00000000D804002010B5FFF730
:1020F000C7FF32A1334802F03BFC03E04FF4FA7013
:1021000002F0B0FC30A131A000F0E2F80028F5D1D7
:1021100030A12C4802F02CFC2DA131A000F0D8F801
:102120004FF4FA7002F09EFC29A130A000F0D0F824
:102130004FF4FA7002F096FC30A1224802F018FC2D
:1021400003E04FF4FA7002F08DFC1FA12EA000F006
:10215000BFF80028F5D130A11A4802F009FC03E0CD
:102160004FF4FA7002F07EFC17A12FA000F0B0F837
:102170000028F5D130A1134802F0FAFB03E04FF438
:10218000FA7002F06FFC2FA130A000F0A1F8002837
:10219000F5D138A10B4802F0EBFB03E04FF4FA70E5
:1021A00002F060FC37A139A000F092F80028F5D1C8
:1021B00041A1044802F0DCFB10BD0000302E20419C
:1021C000540D0A00003801404F4B000041540D0AE5
:1021D00000000000312E205253540D0A0000000070
:1021E00041542B5253540D0A0000000041542B431C
:1021F0004950434C4F53450D0A000000322E2043F6
:10220000574D4F44450D0A0041542B43574D4F4401
:10221000453D310D0A000000332E2041542B435719
:10222000444843500D0A000041542B43574448434F
:10223000503D312C310D0A00342E2043574A415075
:102240000D0A0000474F54204950000041542B43D1
:10225000574A41503D224F6E65506C757338542279
:102260002C226C6A633132333435363738220D0A0A
:1022700000000000352E2043495053544152540D64
:102280000A000000434F4E4E4543540041542B4337
:10229000495053544152543D22544350222C2262FF
:1022A000726F6B65722E656D71782E696F222C319D
:1022B0003838330D0A000000362E2045535038328E
:1022C000363620496E6974204F4B0D0A000000001D
:1022D0002DE9F04104460D46C8262046FEF7DBF9FD
:1022E00087B23A4621460D4802F066FB0FE000F047
:1022F0003DF848B929460A48FEF7BBF920B1FFF777
:10230000BFFE0020BDE8F0810A2002F0ABFB3000E8
:10231000A6F10101CEB2EAD10120F3E7004400406A
:10232000D804002030B589B004460D46FFF7A8FE5A
:102330002A4608A101A8FEF733F80AA101A8FFF771
:10234000C7FF20B92A462146074802F035FB09B0ED
:1023500030BD000041542B43495053454E443D2568
:10236000640D0A003E000000004400400A48008856
:1023700008B9012070470848008808490988884240
:1023800003D1002004490880F4E70348008803498A
:1023900008800120EEE700003C0000203E00002005
:1023A00010B50A2002F05EFB0821094800F071F91F
:1023B00050B90848007808B9012000E0002005491C
:1023C0000870002004490870082000F067F810BD6C
:1023D00000180140000000200100002010B50A2074
:1023E00002F040FB1021084800F053F938B90748C3
:1023F000006808B9012000E00020044908601020AE
:1024000000F04CF810BD00000018014094812142FA
:102410000EB500F0BBF90121084601F0FFFD0321D4
:10242000042000F08BF80820019000208DF80800AF
:102430000C208DF8090001A800F036F804210846A8
:1024400000F07CF81020019001A800F02DF8012088
:10245000019008208DF8090001A800F025F8092056
:102460008DF8000002208DF8010001208DF8020097
:102470008DF80300684600F09FFF0A208DF80000E9
:1024800002208DF8010000208DF8020001208DF857
:102490000300684600F090FF0EBD0000014908608F
:1024A0007047000014040140002123498279002A6A
:1024B0003AD00A46126803689A430B461A600A1D0E
:1024C000126803689A430B1D1A60027911440A6866
:1024D00003681A430A60184A0832126803689A436C
:1024E000154B08331A601A1D126803689A43124B81
:1024F0000C331A604279102A0ED11A1F1268036831
:102500001A430D4B08331A601A1D126803681A43E8
:10251000094B0C331A600DE00749427911440A68EF
:1025200003681A430A6005E0027911440A680368E7
:102530009A430A60704700000004014030B5002251
:102540008B071C0F0F2303FA04F20B4B8C1053F86C
:1025500024309343084C8D1044F8253023468C10CA
:1025600053F824308C07240F00FA04F42343024C60
:102570008D1044F8253030BD080001402DE9F041B0
:10258000024600250026002000230024002791F8A1
:1025900003C00CF00F0591F803C00CF0100CBCF157
:1025A000000F03D091F802C04CEA050591F800C075
:1025B000BCF1000F31D0146800202BE04FF0010C6B
:1025C0000CFA00F3B1F800C00CEA03069E4220D1D9
:1025D00083004FF00F0C0CFA03F7BC4305FA03FC21
:1025E0004CEA040491F803C0BCF1280F06D14FF067
:1025F000010C0CFA00FCC2F814C00AE091F803C008
:10260000BCF1480F05D14FF0010C0CFA00FCC2F8E8
:1026100010C0401C0828D1D31460B1F800C0BCF130
:10262000FF0F34DD546800202EE000F1080C4FF05D
:10263000010808FA0CF3B1F800C00CEA03069E4248
:1026400021D183004FF00F0C0CFA03F7BC4305FABD
:1026500003FC4CEA040491F803C0BCF1280F05D137
:1026600000F1080C08FA0CF8C2F8148091F803C0C5
:10267000BCF1480F07D100F1080C4FF0010808FA2F
:102680000CF8C2F81080401C0828CED35460BDE876
:10269000F0810246002093680B400BB1012000E05E
:1026A00000207047416170470161704700BFFEE73D
:1026B00008B50121082001F0B1FCC020ADF80000F0
:1026C00003208DF8020014208DF8030069460348AA
:1026D000FFF754FF02F0B8FA08BD0000000C0140FB
:1026E00010B520210B48FFF7DFFF4FF480510A4857
:1026F000FFF7DAFF00F042F820210648FFF7D2FF8B
:1027000000F03CF84FF480510348FFF7CBFF00F096
:1027100035F810BD001401400020014010B5202103
:102720000748FFF7BFFF4FF480510648FFF7BCFF93
:1027300000F024F820210248FFF7B6FF10BD00008A
:10274000001401400020014010B520210948FFF786
:10275000ABFF00F013F84FF480510748FFF7A4FFD8
:1027600000F00CF84FF480510348FFF79BFF00F096
:1027700005F810BD0014014000200140032000BFF7
:102780000100A0F10102D0B2FAD1704708B50121D1
:10279000402001F043FC1820ADF8000048208DF8DF
:1027A000030069460148FFF7E9FE08BD0018014033
:1027B00008B50121482001F031FC2020ADF80000CF
:1027C00010208DF8030003208DF8020069460948A7
:1027D000FFF7D4FE20210748FFF766FF2020ADF861
:1027E000000069460448FFF7C9FE20210248FFF7B0
:1027F0005BFF08BD000C01400018014070B5FFF7F9
:1028000040FB064602F08CFC0546044902F0C6FB7C
:1028100004464FF07E5102F0CBFC70BDCDCC8C3F16
:1028200010B50446207B012802D12068FDF777FD12
:10283000002020606060A060207310BD024600236D
:1028400001230DE002F07F000870D2092AB1087858
:1028500040F080000870491C01E0184670475B1C7E
:10286000042BEFDD4FF0FF30F8E770B504460E465D
:102870000025206898B9012020733046FDF720FD1F
:1028800020602068E0B100206060A66003E00020C6
:10289000216848556D1CA068A842F8D810E00220B5
:1028A000207303E00020216848556D1CA068A842F1
:1028B000F8D800206060A068B04201D200202060FB
:1028C00070BD00002DE9FF5F07460D469046384673
:1028D000FDF7E1FE86B22846FDF7DDFE1FFA80FA1D
:1028E0004FF00009F01DFDF7EBFC04461CB9012078
:1028F00004B0BDE8F09FF11D2046FDF730FF12A0A7
:10290000016821608088A080324639462046FDF764
:102910009EFE2846FDF7BFFE834601200021009160
:102920005B462A46CDE90208019121460A2000F0C3
:102930005FF910B94FF0000901E04FF0010920469E
:10294000FDF7EDFC4846D3E724637273702F000057
:102950002DE9FF4F83B082468B469146159C00259A
:10296000002002900F2701904846FDF794FE0FFAD1
:1029700080F8B9F1000F03D1012007B0BDE8F08F56
:1029800008F10200384487B2109808B145F00205FA
:10299000129878B145F004051298FDF77CFEC0B29C
:1029A00002901398FDF777FE01460298001D084437
:1029B000384487B2119820B1012804D0022808D1E8
:1029C00004E000BF07E045F00C0504E045F0140505
:1029D00001E00220D1E700BF149808B145F02405BA
:1029E000BAF1000F02D0BBF1000F01D10320C4E700
:1029F00045F0C0055046FDF74EFE06465846FDF729
:102A00004AFE3044001D384487B239462046FFF75D
:102A10002CFF206808B90420AFE739462068FDF78D
:102A20009EFE10216268501C606020688154D4E9C9
:102A30000023D118781FFFF701FF00B20190019821
:102A4000002804DA2046FFF7EBFE052095E76168D1
:102A500001980844606000216268501C6060206832
:102A6000815404216268501C6060206881544D21AB
:102A70006268501C60602068815451216268501C5B
:102A800060602068815454216268501C6060206836
:102A900081546268501C606020688154042162681F
:102AA000501C6060206881546168481C6060206828
:102AB00045540698010A6268501C60602068815481
:102AC0000698C1B26268501C606020688154C8F3E7
:102AD00007216268501C6060206881546268501C45
:102AE0006060206800F80280D4E90012881842462D
:102AF0004946FDF7ACFD60684044606005F00400A5
:102B0000B8B30026139808B938A013901298FDF7AF
:102B1000C2FD86B2310A6268501C60602068815430
:102B20006268501C606020688654D4E900128818DE
:102B300032461299FDF78BFD60683044606013984F
:102B4000FDF7A9FD86B2310A6268501C60602068FA
:102B500081546268501C606020688654D4E9001279
:102B6000881832461399FDF772FD60683044606042
:102B700000BF05F08000C8B15046FDF78CFD86B25D
:102B8000310A6268501C6060206881546268501C81
:102B9000606020688654D4E9001288183246514695
:102BA000FDF755FD60683044606000BF05F04000EF
:102BB000C8B15846FDF76FFD86B2310A6268501CF5
:102BC0006060206881546268501C60602068865490
:102BD000D4E90012881832465946FDF738FD60687E
:102BE0003044606000BF0020C7E600000000000025
:102BF0002DE9FF4F83B0834617469946139C002565
:102C000000260020029001908046BBF1000F03D106
:102C1000012007B0BDE8F08F00260AE00498805D2F
:102C2000232803D00498805D2B2801D10220F0E7EF
:102C3000761C0498805D0028F0D148F03008119887
:102C400008B148F0010806EB0900851C109820B176
:102C5000012804D002280AD105E000BF09E048F0AD
:102C60000208AD1C05E048F00408AD1C01E003209B
:102C7000CFE700BF8FB33878022821D14FF0000A88
:102C800000BF50460AF1010A385C7D28F9D1AAF14B
:102C9000030A0AF1070002900298A9EB000AE81C57
:102CA000A0EB0A012046FFF7E0FD206808B90420E8
:102CB000AFE7EA1CA2EB0A012068FDF750FD19E01E
:102CC000691D2046FFF7D1FD206808B90420A0E760
:102CD000691D2068FDF743FD0CE0FFE7691D2046F4
:102CE000FFF7C3FD206808B9042092E7691D20683A
:102CF000FDF735FD6168481C6060206800F80180C0
:102D0000D4E9000281182846FFF798FD0190019848
:102D1000002804DA2046FFF783FD052079E7616883
:102D2000019808446060C6F307216268501C606027
:102D3000206881546268501C606020688654D4E921
:102D40000012881832460499FDF781FC606830440F
:102D50006060109860B14FEA1B216268501C60608F
:102D6000206881546268501C6060206800F802B0DE
:102D7000C7B1387802280BD1D4E900128818394637
:102D8000029AFDF7A7FC616802980844606009E0B8
:102D9000D4E9001288184A463946FDF79BFC606862
:102DA00048446060002034E770B505460C460421B5
:102DB0002046FFF75AFD206808B9012070BD402168
:102DC0006268501C60602068815402216268501C57
:102DD00060602068815429126268501C606020681D
:102DE00081546268501C6060206885540020E5E7CB
:102DF00070B505460C4604212046FFF736FD2068D5
:102E000008B9012070BD70216268501C60602068A4
:102E1000815402216268501C60602068815429122C
:102E20006268501C6060206881546268501C606059
:102E3000206885540020E5E770B505460C4604215E
:102E40002046FFF712FD206808B9012070BD50210F
:102E50006268501C60602068815402216268501CC6
:102E600060602068815429126268501C606020688C
:102E700081546268501C6060206885540020E5E73A
:102E800070B505460C4604212046FFF7EEFC20688D
:102E900008B9012070BD62216268501C6060206822
:102EA000815402216268501C60602068815429129C
:102EB0006268501C6060206881546268501C6060C9
:102EC000206885540020E5E72DE9FF5F804617461E
:102ED00099460E9C0026B246B3460025B8F1000F75
:102EE00003D1012004B0BDE8F09F0BE057F82500A6
:102EF00008B90220F6E757F82500FDF7CCFB064499
:102F0000681CC5B24D45F1DB09EB4900801C00EBA4
:102F1000060A0AF105012046FFF7A7FC206808B958
:102F20000320DFE782216268501C606020688154C2
:102F3000D4E9000281185046FFF780FC0FFA80FBAD
:102F4000BBF1000F04DA2046FFF76AFC0420C9E752
:102F50006068584460604FEA18216268501C6060E5
:102F6000206881546268501C6060206800F802800C
:102F7000002524E057F82500FDF78DFB0646C6F333
:102F800007216268501C6060206881546268501C90
:102F9000606020688654D4E90023D01857F82510C3
:102FA0003246FDF754FB6068304460600198C1B25E
:102FB0006268501C606020688154681CC5B24D4531
:102FC000D8DB00208EE7F0B504460D4626460123E7
:102FD00000201060002114E0775C07F07F07106884
:102FE00007FB03001060705C00F0800008B9481C0B
:102FF000F0BDDB01B3F5001F02D36FF00100F7E76E
:10300000491CA942E8DB4FF0FF30F1E72DE9F84316
:1030100080460C4615461E462F2108F10600FDF796
:103020000CFB07460020009017B90120BDE8F8838B
:103030007F1C6A46042108F10100FFF7C4FF252028
:10304000FDF73EF92060206808B90220EEE725214F
:103050002068FDF784FB242239462068FDF73AFBFF
:10306000243700982C3830803188481CFDF728F927
:103070002860286820B92068FDF751F90320D5E7BA
:103080003288511C2868FDF76AFB32883946286867
:10309000FDF720FB0020C9E701464878022801D04F
:1030A00001207047887810B18878012801D1C8784C
:1030B000F7E7FF20F5E700002DE9FC5F81460D46AC
:1030C00014461E46DDE90C8B99F8000000F00F0A4B
:1030D000002001900AF008000090CAF341008BF82C
:1030E000000001AA042109F10100FFF76CFF484428
:1030F000471C0198022802D30AF0010010B1FF20FA
:10310000BDE8FC9F7878397840EA0120208020884B
:10311000801C0199884201D9FF20F1E754A1B81C15
:10312000FDF7A7FA08B10F20EAE79BF8000020B1ED
:1031300001283DD0022877D13BE0009808B1FF205C
:10314000DEE72188481CFDF7BBF82860286808B92D
:10315000FF20D5E72288511C2868FDF700FB228854
:10316000B91C2868FDF7B6FA0198801E2188401A1C
:10317000A8F80000B8F80010481CFDF7A1F830606E
:10318000306820B92868FDF7CAF8FF20B8E7B8F81A
:103190000020511C3068FDF7E2FAB8F80020B4F8BE
:1031A00000C0BB1C0CEB03013068FDF793FA4FE045
:1031B00000BF2088801C0199884201D9FF209FE729
:1031C0002088C01C395C2088801C385C41EA0021C2
:1031D0000E9801800E9808B9FF2091E72188481CBD
:1031E000FDF76EF82860286808B9FF2088E7228874
:1031F000511C2868FDF7B3FA2288B91C2868FDF72E
:1032000069FA0198001F2188401AA8F80000B8F850
:103210000010481CFDF754F83060306828B9286861
:10322000FDF77DF8FF206BE710E0B8F80020511C97
:103230003068FDF794FAB8F80020B4F800C03B1DE0
:103240000CEB03013068FDF745FA01E0FF2057E77A
:1032500000BF2B212846FDF7F0F920B9232128468D
:10326000FDF7EBF908B1FF204AE7002048E700002E
:10327000246372657100000001464878022801D07D
:1032800001207047887820B9C8780A2801D1002029
:10329000F7E70120F5E701464878022801D0012030
:1032A0007047887820B9C8780A2801D10020F7E74C
:1032B0000120F5E701464878022801D00120704737
:1032C000887820B9C8780A2801D10020F7E70120C2
:1032D000F5E702465078022801D001207047907827
:1032E000B0EB112F05D1D078CBB2984201D100209C
:1032F000F4E70120F2E70000F8B50446FF27207844
:103300000511012D01DB0E2D01DD3846F8BD032D21
:1033100024D1002000906A460421601CFFF753FE70
:103320002044461C0098022803D3207800F00100B6
:1033300008B1FF20EAE77078317840EA0120801C6C
:103340000099884201D9FF20E0E706A1B01CFDF7F3
:1033500090F908B10F2700E0032700E02F46384618
:10336000D4E7000024637265710000000146FF206D
:103370008A78A2B9CA78142A11D10A7932B1012AFD
:1033800005D0022A04D0802A06D103E000BF00BF86
:10339000002003E0012001E0022000BF00BF7047D1
:1033A000014601208A781AB9CA781E2A00D1002065
:1033B000704700BFFEE7704770B5002100230F2261
:1033C000C47804B3154C246804F4E064C4F5E064E4
:1033D000210AC1F10403CA40447804FA03F1847855
:1033E0001440214309010E4C0678A155047804F0DD
:1033F0001F050124AC4005786D11AD0005F1E025F5
:10340000C5F8004109E0047804F01F050124AC4030
:10341000044D0678761145F8264070BD0CED00E0AD
:1034200000E400E080E100E002490143024A11604B
:10343000704700000000FA050CED00E070B50024B4
:103440000CE0002506E00020074901EBC501085506
:10345000681CC5B2802DF6DB601CC4B2082CF0DB02
:1034600000F020F970BD00004400002010B50446B3
:103470001CB90021A62000F00CFA012C03D1002178
:10348000A72000F006FA10BD10B504463CB9002193
:10349000C82000F0FEF90021A12000F0FAF9012C6B
:1034A00007D10021C02000F0F4F90021A02000F095
:1034B000F0F910BDF0B514460B46CF1701EB577766
:1034C000C7F3C702CF1701EB5777FF10A1EBC70770
:1034D000FEB20123B340DDB24CB1134B03EBC0038A
:1034E0009B5C2B43104F07EBC007BB541AE00E4BFD
:1034F00003EBC0039B5CDB430B4F07EBC007BB54E4
:10350000094B03EBC0039B5C2B43074F07EBC00742
:10351000BB54054B03EBC0039B5CDB43024F07EB43
:10352000C007BB54F0BD00004400002008B50121D5
:103530004FF4907000F072FD4FF48050ADF8000031
:1035400014208DF8030003208DF8020069465348CB
:10355000FFF714F84FF480515048FFF7A5F82020EA
:10356000ADF8000014208DF8030003208DF8020050
:1035700069464B48FFF702F820214948FFF794F8C5
:103580001020ADF800008DF8030003208DF8020034
:1035900069464348FEF7F2FF10214148FFF784F8DF
:1035A00010213F48FFF77EF8C82001F05BFA102198
:1035B0003B48FFF779F80021AE2000F06AF90021BE
:1035C000084600F066F90021102000F062F90021A1
:1035D000402000F05EF90021812000F05AF900211E
:1035E000CF2000F056F90021A12000F052F900216F
:1035F000C82000F04EF90021A62000F04AF9002171
:10360000A82000F046F900213F2000F042F90021F7
:10361000D32000F03EF90021084600F03AF90021DD
:10362000D52000F036F90021802000F032F9002189
:10363000D92000F02EF90021F12000F02AF9002114
:10364000DA2000F026F90021122000F022F90021F2
:10365000DB2000F01EF90021402000F01AF90021C3
:10366000202000F016F90021022000F012F90021BC
:103670008D2000F00EF90021142000F00AF900213D
:10368000A42000F006F90021A62000F002F9FFF7BF
:10369000D5FE0021AF2000F0FCF808BD002001405D
:1036A0000014014070B500242BE004F1B001C8B251
:1036B000002100F0EEF80021084600F0EAF80021B1
:1036C000102000F0E6F8FFF70BF8782000F022FD5C
:1036D000FFF73AF8402000F01DFDFFF735F8002510
:1036E00009E0094901EBC501085D00F013FDFFF792
:1036F0002BF8681CC5B2802DF3DBFFF70FF8601CB8
:10370000C4B2082CD1DB70BD440000202DE9FE4F6F
:103710000746884692461C460197CDF80080082C43
:1037200002D14FF006091FE02046E31704EB537364
:10373000DB1021464FEAE47C04EB5C7C4FEAEC0CA6
:10374000A4EBCC0CBCF1000F02D04FF0010C01E057
:103750004FF0000C6344224604EBD27C4FEA6C0C21
:1037600003FB0CF303F0FF09AAF12000C6B2002509
:103770005EE0082C07D106EB46002F4901EB400024
:1037800010F805B01DE00C2C07D106EB46002B49C4
:1037900001EB800010F805B013E0102C05D128488B
:1037A00000EB061010F805B00BE0182C07D106EB63
:1037B000C600244901EB800010F805B001E0BDE827
:1037C000FE8F002002901CE00BF0010028B1414662
:1037D00038460C9AFFF76EFE09E00C9808B90120F4
:1037E00000E00020024641463846FFF763FE4FEAFC
:1037F0006B0B08F1010000F0FF080298401CC0B2FA
:10380000029002980828DFDB781CC7B2082C0BD086
:1038100004EBD4714A100199791A8A4204D1019FAC
:1038200000980830C0B20090DDF80080681CC5B276
:103830004D459EDB00BFC2E74C530008745500089D
:10384000E8590008D85F00082DE9F84106460F4600
:1038500014461D46DDF81C8013E0CDF80080227868
:103860002B4639463046FFF751FF082D02D1B01DD7
:10387000C6B205E0284605EBD07106EB6101CEB279
:10388000641C2078202802DB20787E28E5DDBDE856
:10389000F88170B505460C46FEF722FF782000F04F
:1038A00039FCFEF751FF1CB1402000F033FC02E070
:1038B000002000F02FFCFEF747FF284600F02AFC0E
:1038C000FEF742FFFEF72AFF70BD000030B58BB057
:1038D00000200790089009900A90012530A034A399
:1038E00036A239A10090444801F042F807A800210F
:1038F00002910391CDE9041000912B0228A20191BD
:103900002BA12EA0FFF724F8002842D1089A91B2EB
:103910000798FEF707FDFA20FEF7C0FB0446002CCF
:1039200033D02046FFF7E8FC02282ED12046FFF7CF
:10393000B3FB062823D2DFE800F003090E13181D9D
:103940002EA12D4801F014F800251DE030A12A48D1
:1039500001F00EF818E035A1274801F009F813E04E
:103960003BA1254801F004F80EE041A1224800F0F7
:10397000FFFF09E047A1204800F0FAFF04E050A152
:103980001D4800F0F5FF00BF00BF07A8FEF748FF85
:1039900003E052A1184800F0EBFF28460BB030BD01
:1039A00035363136383339313231363500000000A2
:1039B000746573743133353436340000373732343C
:1039C00037313635000000004F6E654E65745F4438
:1039D00065764C696E6B0D0A50524F49443A20256A
:1039E000732C09415549463A2025732C0944455604
:1039F00049443A25730D0A00003801405469707338
:103A00003A09C1ACBDD3B3C9B9A60D0A0000000084
:103A10005741524E3A09C1ACBDD3CAA7B0DCA3BAD4
:103A2000D0ADD2E9B4EDCEF30D0A00005741524EAD
:103A30003A09C1ACBDD3CAA7B0DCA3BAB7C7B7A80F
:103A4000B5C4636C69656E7469640D0A000000009A
:103A50005741524E3A09C1ACBDD3CAA7B0DCA3BA94
:103A6000B7FECEF1C6F7CAA7B0DC0D0A0000000011
:103A70005741524E3A09C1ACBDD3CAA7B0DCA3BA74
:103A8000D3C3BBA7C3FBBBF2C3DCC2EBB4EDCEF325
:103A90000D0A00005741524E3A09C1ACBDD3CAA726
:103AA000B0DCA3BAB7C7B7A8C1B4BDD328B1C8C8E2
:103AB000E7746F6B656EB7C7B7A8290D0A000000E1
:103AC0004552523A09C1ACBDD3CAA7B0DCA3BACEA5
:103AD000B4D6AAB4EDCEF30D0A0000005741524E01
:103AE0003A094D5154545F5061636B6574436F6E76
:103AF0006E656374204661696C65640D0A000000A0
:103B000070B588B005460C460020049005900690DC
:103B1000079023462A4610A1174800F029FF2046A7
:103B2000FCF7B9FD064604A8012100220223CDE9D5
:103B30000032CDE902103346224629460A20FFF71B
:103B400057F838B9059A91B20498FEF7EBFB04A830
:103B5000FEF766FE08B070BD5075626C6973682030
:103B6000546F7069633A2025732C204D73673A2097
:103B700025730D0A00000000003801402DE9F041D6
:103B800090B0074600200C900D900E900F900B9077
:103B90000A9009900890002607900025002480468E
:103BA0003846FFF7A9FB0646F01E0D2874D2DFE861
:103BB00000F02B77809AB6DBBFDBCDDBDBDB0700C9
:103BC00008AB0BAA0AA93846FFF720FA0546D5B973
:103BD000BDF8200000907DA18548DDE90A2300F0B2
:103BE000C7FE0CAADDE90A01FEF76CFE58B981A1F7
:103BF0007F4800F0BDFE0D9A91B20C98FEF792FB43
:103C00000CA8FEF70DFEB2E0804807A908AA0BAB8E
:103C1000CDE90021029009AA0AA93846FFF74CFA1B
:103C20000546002D3BD1BDF820000B99CDE90010D1
:103C3000BDF8243076A16E480A9A00F099FE9DF8EE
:103C40001C00012802D0022827D112E00CA96F48DD
:103C50000088FFF7A9F858B97CA1654800F088FEF4
:103C60000D9A91B20C98FEF75DFB0CA8FEF7D8FDFB
:103C700014E00CA965480088FFF7DEF858B979A16F
:103C80005B4800F075FE0D9A91B20C98FEF74AFB66
:103C90000CA8FEF7C5FD01E066E000BF00BF66E0CE
:103CA0003846FFF7E9FA18B974A1514800F060FEF0
:103CB0005DE03846FFF7FEFAA0B978A14C4800F065
:103CC00057FE0CA90A20FFF7DBF858B979A148483C
:103CD00000F04EFE0D9A91B20C98FEF723FB0CA853
:103CE000FEF79EFD43E0494801883846FFF7F1FAA8
:103CF000A0B976A13E4800F03BFE0CA90A20FFF7D0
:103D000077F858B977A13A4800F032FE0D9A91B28F
:103D10000C98FEF707FB0CA8FEF782FD27E038465B
:103D2000FFF7B9FA18B976A1314800F021FE1EE07C
:103D30003846FFF71BFB20B977A12D4800F018FE8D
:103D400003E07CA12A4800F013FE10E03846FFF79C
:103D500027FB20B97EA1264800F00AFE03E083A1DC
:103D6000234800F005FE02E04FF0FF3500BF00BF22
:103D7000FEF786F9681C10B910B0BDE8F0817D210E
:103D80000B98FCF75AFC0446A4B1681C90B1641C63
:103D900006E014F8012B404608F1010804A90A5472
:103DA0002078302802DB20783928F2DD04A8FCF7DF
:103DB00037FC80460F2E01D0032E05D10A98FCF760
:103DC000AEFA0B98FCF7ABFA00BFD5E7636D6469F8
:103DD000643A2025732C207265713A2025732C20BB
:103DE0007265715F6C656E3A2025640D0A000000F3
:103DF00000380140546970733A0953656E6420437A
:103E00006D64526573700D0A0000000040000020D0
:103E1000746F7069633A2025732C20746F70696326
:103E20005F6C656E3A2025642C207061796C6F613F
:103E3000643A2025732C207061796C6F61645F6C2B
:103E4000656E3A2025640D0A000000005469707305
:103E50003A0953656E64205075626C6973684163FA
:103E60006B0D0A00546970733A0953656E642050F3
:103E700075626C6973685265630D0A0054697073EA
:103E80003A094D515454205075626C69736820533F
:103E9000656E64204F4B0D0A00000000546970737A
:103EA0003A09526576205075626C69736852656391
:103EB0000D0A0000546970733A0953656E6420500E
:103EC00075626C69736852656C0D0A005469707391
:103ED0003A09526576205075626C69736852656C58
:103EE0000D0A0000546970733A0953656E642050DE
:103EF00075626C697368436F6D700D0A0000000095
:103F0000546970733A09526576205075626C697312
:103F100068436F6D700D0A00546970733A094D5112
:103F2000545420537562736372696265204F4B0D60
:103F30000A000000546970733A094D5154542053DB
:103F40007562736372696265204572720D0A0000C2
:103F5000546970733A094D51545420556E5375622B
:103F6000736372696265204F4B0D0A005469707368
:103F70003A094D51545420556E53756273637269FA
:103F80006265204572720D0A0000000070B586B0AF
:103F900004460D46002600200290039004900590F0
:103FA00007E054F826200DA1124800F0E1FC701C37
:103FB000C6B2AE42F5DB02A82B4622460221009093
:103FC0001420FEF781FF38B9039A91B20298FEF7E8
:103FD000A9F902A8FEF724FC06B070BD5375627300
:103FE000637269626520546F7069633A2025730DAE
:103FF0000A000000003801407047000029B1064A5D
:10400000D2690243044BDA6104E0034AD269824375
:10401000014BDA61704700000010024029B1064AE6
:1040200092690243044B9A6104E0034A9269824315
:10403000014B9A61704700000010024030B500212A
:104040000022002400232D4D6D6805F00C0121B1E4
:10405000042905D0082923D105E0294D056022E077
:10406000274D05601FE0254D6D6805F47012234D46
:104070006D6805F48034022505EB92421CB9214D90
:10408000554305600BE01D4D6D6805F400351DB10D
:104090001C4D5543056002E0194D5543056002E093
:1040A000174D056000BF00BF144D6D6805F0F001AD
:1040B0000909154D6B5C0568DD4045600F4D6D6865
:1040C00005F4E061090A104D6B5C4568DD408560D0
:1040D0000A4D6D6805F46051C90A0B4D6B5C45686B
:1040E000DD40C560054D6D6805F44041890B074D05
:1040F0006B5CC568B5FBF3F5056130BD001002408F
:1041000000127A0000093D0028000020380000203D
:104110007047000070B5044600251DE004F08000E3
:1041200020B120210E48FEF7BFFA03E020210C4801
:10413000FEF7B8FAFEF722FB4FF480510948FEF76C
:10414000B3FAFEF71BFB4FF480510648FEF7AAFABC
:104150006006040E681CC5B2082DDFDB70BD0000D0
:10416000001401400020014010B500F001F810BD1E
:104170000CB50020019000903348006840F4803076
:104180003149086000BF3048006800F400300090FA
:104190000198401C0190009818B90198B0F5A06FE3
:1041A000F1D12948006800F4003010B101200090DE
:1041B00001E0002000900098012843D123480068C6
:1041C00040F01000214908600846006820F0030014
:1041D00008600846006840F0020008601A4840681D
:1041E000194948600846406848600846406840F4FD
:1041F000806048600846406820F47C1048600846AB
:10420000406840F4E81048600846006840F080705C
:10421000086000BF0C48006800F000700028F9D06A
:104220000948406820F00300074948600846406894
:1042300040F00200486000BF0348406800F00C00F6
:104240000828F9D10CBD00000010024000200240F7
:10425000042808D14FF0E021096941F004014FF032
:10426000E022116107E04FF0E021096921F004012B
:104270004FF0E022116170477047000010B51348FD
:10428000006840F001001149086008464068104984
:1042900008400E494860084600680E4908400B492E
:1042A00008600846006820F48020086008464068DE
:1042B00020F4FE0048604FF41F008860FFF754FFB1
:1042C0004FF000600449086010BD0000001002407B
:1042D0000000FFF8FFFFF6FE08ED00E010B5012139
:1042E000880700F012F9F8B10121880700F0FEF804
:1042F0000E48007888B10E48006808B9012000E037
:1043000000200B4908600B48D0F8A00108B9012033
:1043100000E000200849086006E001200449086028
:1043200000200449C1F8A00110BD000000000020D9
:104330009401234200802142A08121427FB505469D
:104340000C4601210846FFF759FEADF80850ADF8BC
:1043500004400020ADF80A00ADF8060001A94FF0B6
:10436000804000F0EDF801221146900700F0DEF8E1
:104370001C208DF8000000208DF8010003208DF82E
:10438000020001208DF803006846FFF715F80121AF
:10439000880700F0AEF87FBD38B50121264800F04F
:1043A000B4F8002846D00121234800F09FF823A14B
:1043B0002448FBF7F5FF01201023224A002100903A
:1043C0002020FFF741FA204803782048027820A1F6
:1043D0001C48FBF7E5FF012010231A4A19460090FC
:1043E0000020FFF731FA1E4803781E4802781EA10C
:1043F0001448FBF7D5FF01201023124A202100901A
:104400000020FFF721FAFFF719F81B48006800F0B9
:104410008DFD044622460B4618A10A48FBF7C0FF53
:1044200001201023074A302100900020FFF70CFAEA
:10443000FFF738F938BD00000004004057656C6391
:104440006F6D6500C40400200300002002000020FE
:1044500048756D3A25642E2564202525000000004E
:10446000050000200400002054656D703A25642E7C
:104470002564204300000000080000204C696768A4
:10448000743A252E3166204C780000007FB5054631
:104490000C4601210220FFF7B1FDADF80850ADF840
:1044A00004400020ADF80A00ADF8060001A90E484E
:1044B00000F046F8012211460B4800F037F81D20A5
:1044C0008DF8000000208DF8010003208DF8020017
:1044D00001208DF803006846FEF76EFF01210248B7
:1044E00000F007F87FBD000000040040CA430282CC
:1044F000704721B1028842F00102028004E0028884
:104500004FF6FE731A400280704730B50246002015
:1045100000230024158A05EA0103958905EA0104B0
:1045200013B10CB1012000E0002030BD1AB1838925
:104530000B43838102E083898B43838170470000B2
:10454000002202881D4B98420ED01D4B98420BD082
:10455000B0F1804F08D01B4B984205D01A4B9842BF
:1045600002D01A4B984204D14FF68F731A404B88F1
:104570001A43174B984207D0164B984204D04FF677
:10458000FF431A40CB881A4302808B8883850B88AF
:1045900003850A4B98420BD0094B984208D00E4B2A
:1045A000984205D00D4B984202D00D4B984201D154
:1045B0000B7A03860123838270470000002C0140A0
:1045C000003401400004004000080040000C00409E
:1045D0000010004000140040004001400044014031
:1045E0000048014010B540F22551044800F050F851
:1045F00018B12021014800F029F810BD0038014011
:1046000010B540F225510E4800F042F8B0B10D4807
:104610000088802802D300200A4908800848001D2D
:104620000088C1B2074802880088401C054B1880EA
:10463000054881542021024800F008F810BD000010
:10464000004400403C000020D804002001F4007227
:10465000B2F5007F00D100BFCA430280704721B18C
:10466000828942F40052828104E082894DF6FF7310
:104670001A408281704702460020B1F5007F00D1C8
:1046800000BF13880B400BB1012000E000207047F1
:1046900070B50246002400230025002040F66A166B
:1046A000B14200D100BFC1F3421501F01F03012642
:1046B00006FA03F3012D02D19689334006E0022D5C
:1046C00002D1168A334001E0968A33400C1201264B
:1046D00006FA04F41688344013B10CB1012000E04E
:1046E000002070BDF0B50346002400260025002000
:1046F00040F66A17B94200D100BF1846C1F3421410
:1047000001F01F06012707FA06F5012C01D10C3034
:1047100004E0022C01D1103000E014301AB1076817
:104720002F43076002E00768AF430760F0BD000059
:104730002DE9F04786B005460E460024A24600BF8C
:10474000A1460027B08900B100BF2F462C8A4CF645
:10475000FF700440F08804432C82AC894EF6F310BD
:104760000440B08831890843718908430443AC810F
:10477000AC8A4FF6FF400440B0890443AC8201A8E4
:10478000FFF75CFC1F48874202D1DDF810A001E072
:10479000DDF80CA0A88900F4004040B10AEBCA0083
:1047A00000EB0A1031684900B0FBF1F807E00AEBB2
:1047B000CA0000EB0A1031688900B0FBF1F86420F0
:1047C000B8FBF0F004012009642101FB1089A889DD
:1047D00000F4004040B1322000EBC900B0FBF1F022
:1047E00000F00700044308E0322000EB09106421C8
:1047F000B0FBF1F000F00F0004432C8106B0BDE8DF
:10480000F087000000380140C1F308028280704741
:1048100000BFFEE710B586B0044601210420FFF773
:10482000FDFB01218803FFF7F9FB18208DF8170025
:104830004FF40070ADF8140003208DF8160005A9A0
:104840001E48FDF79BFE04208DF817000002ADF80E
:10485000140003208DF8160005A91848FDF78EFEF8
:1048600001940020ADF810000C20ADF80E000020DF
:10487000ADF80C00ADF80A00ADF8080001A9104829
:10488000FFF756FF01210E48FFF7E9FE012240F233
:1048900025510B48FFF726FF25208DF80000012049
:1048A0008DF8030000208DF8010002208DF8020031
:1048B0006846FEF781FD06B010BD0000000801400B
:1048C0000038014010B586B0044601210420FFF7EE
:1048D000A5FB01214804FFF791FB18208DF8170074
:1048E0000420ADF8140003208DF8160005A91E4819
:1048F000FDF744FE04208DF817000820ADF81400E1
:1049000003208DF8160005A91748FDF737FE01941E
:104910000020ADF810000C20ADF80E000020ADF81E
:104920000C00ADF80A00ADF8080001A90F48FFF728
:10493000FFFE01210D48FFF792FE012240F22551B2
:104940000A48FFF7CFFE26208DF8000001208DF8E1
:10495000030000208DF801008DF802006846FEF784
:104960002BFD06B010BD00000008014000440040CF
:104970000FB430B5CBB0054601AC50A800904FF451
:10498000947101A8009B4F9AFBF7F0FC0020009067
:104990000BE014F8011B2846FFF736FF00BF40214B
:1049A0002846FFF768FE0028F9D020780028F0D1CB
:1049B0004BB030BC5DF814FB2DE9F04107460C46C6
:1049C000154600260DE014F8011B3846FFF71CFFC2
:1049D00000BF40213846FFF74EFE0028F9D0701C7A
:1049E00086B2AE42EFDBBDE8F081490050EAC1205B
:1049F00018BF04204A0D18BF40F0010040F2FF72BA
:104A0000B2EB515F08BF40F00200012808BF05204B
:104A1000704730380A2801D20120704700207047C3
:104A200010B56FF00400FFF713FC0A4800680A494C
:104A3000B0FBF1F0094908700846007800EB40012E
:104A4000C1EBC0104FF6FF7101EAC00004490880B5
:104A500010BD00001000002000127A002400002089
:104A6000260000200146114A12884A434FF0E023F5
:104A70005A6100229A611A46126942F001021A61D3
:104A800000BF4FF0E022106900F001021AB100F4FB
:104A90008032002AF5D04FF0E022126922F00102A4
:104AA0004FF0E0231A6100229A617047260000202F
:104AB0000146114A12784A434FF0E0235A6100221E
:104AC0009A611A46126942F001021A6100BF4FF062
:104AD000E022106900F001021AB100F48032002ACD
:104AE000F5D04FF0E022126922F001024FF0E023EE
:104AF0001A6100229A6170472400002010B58020BE
:104B00000949086000F020F840200749091F0860A3
:104B100000F01AF840200449086000F015F88020E1
:104B20000149091F086010BD140C014070B504460E
:104B300000F072F8204600F045F800F095F80546C0
:104B400000F082F8284670BD002001E0411CC8B288
:104B50000A28FBDB7047000010B580200749086079
:104B6000FFF7F2FF402005490860FFF7EDFF402006
:104B70000249091D0860FFF7E7FF10BD100C014056
:104B800070B50024002516E06006040E40200C4994
:104B90000860FFF7D9FF0A480838006800F0800075
:104BA00008B1601CC4B240200549091D0860FFF728
:104BB000CBFF681CC5B2082DE6DB204670BD0000A7
:104BC000100C014070B50446002520E004F0800080
:104BD00018B180200F49086003E080200D49091DAD
:104BE0000860FFF7B1FF40200A490860FFF7ACFFFB
:104BF00040200849091D0860072D02D18020091FA7
:104C000008606006040EFFF79FFF681CC5B2082D00
:104C1000DCDB70BD100C014010B580200949086034
:104C200040200860FFF790FF80200649091D0860BA
:104C3000FFF78AFF40200349091D0860FFF784FF42
:104C400010BD0000100C014010B58020054908601F
:104C50004020091F0860FFF777FF80200149091FE6
:104C6000086010BD140C014010B580200C4908608C
:104C7000FFF76AFF40200A490860FFF765FF084810
:104C80000838006800F0800008B1012400E000242A
:104C900040200349091D0860FFF756FF204610BD5C
:104CA000100C01401CB500240025FFF7B9FE4FF49D
:104CB000A060FEF7B9FBFDF77BFDFDF767FDFDF793
:104CC000A7FBFDF79BF8FDF72DF9FDF7CCF8FEF7F4
:104CD0002DFC0020FEF7CAFB0020FEF7D5FBFEF7F7
:104CE000ADFB41F61F4141F28730FFF7CFFB41F6A4
:104CF0001F4140F6C310FFF721FB49A14D48FFF7C4
:104D000037FE4FF4E130FFF785FD4FF4E130FFF758
:104D1000D9FDFDF7EBF903E04FF4FA70FFF7A2FEBF
:104D2000FEF7D4FD0028F7D1012043490860FA209E
:104D3000FFF798FE00204149C1F8A0010121404839
:104D4000FFF724F96AE0282094FBF0F100FB114002
:104D5000002848D13B4B3C4A3C493D48FDF737F9D8
:104D60003848007838490978CDE900103748037889
:104D70003748027837A12F48FFF7FAFD4620FFF7A2
:104D8000D5FE70B9FDF73AFD38490860084600685D
:104D900000F0CCF8064632460B4635A12548FFF711
:104DA000E7FD3A4800780A2814D1294800785028AD
:104DB0000DDA254800781E2809DA35492B480068A5
:104DC00000F0C2F903D200203249087002E001204D
:104DD000304908702D4800780A2804DA2B480078FA
:104DE000401C2A490870601C80B20446C8280ADBAF
:104DF00029A11048FFF7BCFD2CA131A0FEF780FED1
:104E00000024FDF73DF90320FDF748F9054615B1EB
:104E10002846FEF7B3FE0A20FFF724FE93E70000C2
:104E200020486172647761726520696E6974204FF1
:104E30004B0D0A0000380140A08121420080214230
:104E40000C000020050000200400002003000020CA
:104E500002000020CAAAB6C8A3BA25642E2564CED3
:104E6000C2B6C8A3BA25642E25640000080000203D
:104E7000B5B1C7B0B9E2D5D5C7BFB6C8CEAAA3BA37
:104E8000252E3166206C780D0A00000001000020FC
:104E900000401C46000000204F6E654E65745F5058
:104EA00075626C6973680D0A000000004D5154541E
:104EB000205075626C69736820546573740000003B
:104EC0007063546F7069630010B500290AD00878C8
:104ED000002807D005487844FCF76EFB002801D075
:104EE000002010BD0248784410BD0000922300004D
:104EF0008A23000010B500290AD00878002807D0BE
:104F000005487844FCF758FB002801D0002010BD6C
:104F10000248784410BD0000822300007A2300007C
:104F20000808A0F500114FEA3101704743004FEA2D
:104F3000D30C4FEA3C0C43401FBF40070CF16051BB
:104F400013F0FE4F70471CF0006F03D100200CF0EF
:104F5000004170470CF0004343EA507010B540EA3E
:104F6000CC0000F0A6F900BF000000924FEA00015B
:104F7000FFF7D6BF4FF000414FF00000A1F5002130
:104F80007047401058BFC0F14040491058BFC1F1B0
:104F900040418142EFF30080704700004FF47F0CE6
:104FA0001CEAD0121EBF1CEAD11392EA0C0F93EA3E
:104FB0000C0F00F0858090EA010F48BF42F4807228
:104FC00040F4000C41F400002CF07F4120F07F40C1
:104FD00000B58142A2EB03020FF2081CACEB504E6D
:104FE000C0F100009EF800E04FEA4E0E00FB0EFC00
:104FF00038BF49004FEA2C1C02F5FA020CFB0EF3F5
:105000004FEACE1E4FEA112C4FEAC1210EEB635E30
:1050100042EB22420EFB0CFC4FEA1C5300FB031137
:105020004FEA112C4FEA01310EFB0CFC4FEADC4C2D
:1050300000FB0C11C14228BF09184CEB03335DF88B
:1050400004EB10EB410143EBC250B2F57C0F38BFCB
:10505000704729D512F0F00F1CBF00F1C04000F0DE
:1050600000407047008182838485868788898B8C85
:105070008D8E8F919293959697999A9C9D9FA0A2C1
:10508000A3A5A7A8AAACAEB0B2B3B5B7B9BCBEC011
:10509000C2C5C7C9CCCED1D4D7D9DCDFE2E6E9ECB2
:1050A000F0F3F7FAFE0000004FEA400C0CF1807CB0
:1050B000BCF17E4F28BF7047B0F1C04000F03FB94F
:1050C00090EA010F0CEAD11348BF42F480726245A6
:1050D00038BF634507D213F47F0F16D080EA010072
:1050E00000F00040704710B500F0E3F8097EFC3E88
:1050F00000F005B880EA010000F00040704780EA47
:10510000010000F0004000F01AB912F47F0F04BF54
:105110000248704780EA010000F011B90000C07F2A
:10512000B0FA80F310FA03F2C3F19D030AD0D90557
:1051300001EB1220530638BF704700F1010008BF91
:1051400020F001007047000050EA010C00F11380CC
:105150001CF5000F58BFBCF5000F01D48842704702
:1051600007D710F5000F58BF11F5000F15D488426E
:105170007047894270471CF5000F04D5BCF5000F3D
:10518000F7D5814270474FF0807C1CEB400F38BF51
:105190001CEB410F01D28142704710B500F089F835
:1051A000922449004FF000504FF08051FFF7E9BEC4
:1051B0004FF47F0C1CEAD0121EBF1CEAD11392EAF6
:1051C0000C0F93EA0C0F00F0478090EA010F48BFE4
:1051D00042F480724FF0004C4CEA00204CEA01216E
:1051E00002EB0302A0FB0113A2F50002002918BF85
:1051F00043F001035B0028BF4FEA330342EB224236
:105200005FEA132C4CEBC2502EBFBCEB436FB2F5E0
:105210007C0F70474FEA036CBCF1004F08BF20F0D1
:105220000100B2F57C0F38BF70470BD582F0FF024A
:1052300012F5803FC8BF704700F1C040D8BF00F0F2
:105240000040704700F5000C5FEA4C0C48BF704707
:10525000B0F1C04000F073B890EA010F0CEAD1132E
:1052600048BF42F48072624538BF634504D280EA89
:10527000010000F00040704710B500F01AF800BFC0
:105280008900013E00F007B800F009B85FEA410C60
:105290005FEA1C6C08D080EA010000F050B85FEAB9
:1052A000400C5FEA1C6CF6D14FF00040A0F5800086
:1052B00070470EF1020E2EF0030E5EF8044B2442EE
:1052C00004D44FEA4102B2F17F4F11D84FEA4003B4
:1052D000B3F17F4F0CD80ED14FEAD07CB2F17F4FA3
:1052E0000CEB4C0C0CF1020C08BF4CEBD17C04E035
:1052F0004FF0080C01E04FEAD17C0CEB4C0324FA90
:1053000003F404F00704B4F1040C06D20EEB840C91
:10531000BDE810404CF0010C6047DFE80CF00708D6
:1053200002024FF00040A0F5800010BD0846420088
:1053300018BFD2F1807288BF00F0004010BDFF217D
:1053400041EAD050C0057047FBF701BC00000000E7
:1053500000000000002F00000000070007000014FC
:105360007F147F1400242A7F2A120062640813230A
:1053700000364955225000000503000000001C22A1
:105380004100000041221C000014083E08140008DF
:10539000083E0808000000A060000008080808088F
:1053A000000060600000002010080402003E514927
:1053B000453E0000427F40000042615149460021C5
:1053C00041454B31001814127F10002745454539DF
:1053D000003C4A494930000171090503003649493A
:1053E000493600064949291E0000363600000000F3
:1053F000563600000008142241000014141414143E
:1054000000004122140800020151090600324959E6
:10541000513E007C1211127C007F49494936003E02
:1054200041414122007F4141221C007F49494941BD
:10543000007F09090901003E4149497A007F0808B7
:10544000087F0000417F4100002040413F01007F74
:1054500008142241007F40404040007F020C027F40
:10546000007F0408107F003E4141413E007F090952
:105470000906003E4151215E007F09192946004678
:10548000494949310001017F0101003F4040403F4F
:10549000001F2040201F003F4038403F0063140899
:1054A0001463000708700807006151494543000074
:1054B0007F41410000552A552A55000041417F0097
:1054C000000402010204004040404040000001028C
:1054D0000400002054545478007F48444438003875
:1054E0004444442000384444487F003854545418FD
:1054F00000087E0901020018A4A4A47C007F08040F
:1055000004780000447D4000004080847D00007FDE
:10551000102844000000417F4000007C04180478FB
:10552000007C0804047800384444443800FC2424F7
:1055300024180018242418FC007C080404080048DF
:105540005454542000043F444020003C4040207C00
:10555000001C2040201C003C4030403C00442810EF
:105560002844001CA0A0A07C004464544C441414A3
:1055700014141414000000000000000000000000DB
:105580000000FC000000000002000000000C020C03
:10559000020000000000000090D0BCD0BC900003CE
:1055A000000300001824FE448C00030207020100DF
:1055B0001824D8B04C80000300010201C038E43840
:1055C000E0000102020102020806000000000000E3
:1055D00000000000000000F80402000000010204C6
:1055E000000204F800000004020100009060F8606E
:1055F00090000000010000002020FC20200000009E
:10560000010000000000000000000806000000008B
:1056100020202020200000000000000000000000EA
:1056200000000002000000000080601C0200040373
:1056300000000000F8040404F80001020202010066
:105640000008FC000000000203020000188444244B
:10565000180003020202020008042424D8000102F8
:105660000202010040B088FC80000000000302003C
:105670003C242424C400010202020100F824242C4A
:10568000C0000102020201000C04E41C040000003E
:1056900003000000D8242424D800010202020100E3
:1056A00038444444F80000030202010000001000E6
:1056B00000000000020000000000200000000000C8
:1056C00006000000002050880402000000000102D3
:1056D000909090909000000000000000000204886C
:1056E00050200002010000001804C424180000002B
:1056F00002000000F804E494F80001020202020033
:1057000000E09CF0800002030000030204FC24245B
:10571000D800020302020100F80404040C00010294
:105720000202010004FC0404F8000203020201006A
:1057300004FC24740C0002030202030004FC247421
:105740000C00020302000000F0080444CC400001F9
:105750000202010004FC2020FC04020300000302FA
:105760000404FC040400020203020200000404FC1E
:10577000040406040403000004FC24D00C04020307
:105780000200030204FC0400000002030202020300
:10579000FC3CC03CFC0003000300030004FC30C4DC
:1057A000FC04020302000300F8040404F8000102F0
:1057B0000202010004FC242418000203020000007D
:1057C000F8848404F80001020207050004FC246444
:1057D0009800020302000302182424448C000302F0
:1057E000020201000C04FC040C0000020302000091
:1057F00004FC0000FC04000102020100047C80E0C3
:105800001C040000030000001CE03CE01C0000033E
:1058100000030000049C609C0400020300030200DB
:10582000041CE01C04000002030200000C84641C41
:1058300004000203020203000000FE020200000056
:1058400007040400000E30C0000000000001020048
:10585000000202FE0000000404070000000402042D
:105860000000000000000000000000000000080828
:105870000808080800000200000000000000000006
:105880000040A0A0C00000010202030204FC20208E
:10589000C00000030202010000C0202060000001DF
:1058A0000202020000C02024FC00000102020302E8
:1058B00000C0A0A0C0000001020202000020F824E5
:1058C00024040002030202000040A0A060200007A0
:1058D0000A0A0A0404FC2020C0000203020003029A
:1058E0000020E4000000000203020000000020E4A9
:1058F000000008080807000004FC80E020200203E4
:10590000020003020404FC00000002020302020081
:10591000E020E020C00003000300030020E020207E
:10592000C00002030200030200C02020C0000001EA
:105930000202010020E02020C000080F0A0201003E
:1059400000C02020E0000001020A0F0820E04020F3
:1059500020000203020000000060A0A0200000025E
:10596000020203000020F8200000000001020200F3
:1059700020E00020E00000010202030220E020807D
:1059800060200000030100006080E08060000003F0
:10599000000300002060806020000203000302007A
:1059A00020E0208060200808070100000020A0609F
:1059B0002000000203020200000020DE02000000BE
:1059C00000070400000000FF00000000000F0000BE
:1059D0000002DE20000000040700000002010204B3
:1059E00004020000000000000000000000000000B1
:1059F0000000000000000000000000F800000000AF
:105A0000000000333000000000100C06100C0600EF
:105A1000000000000000000040C07840C078400056
:105A2000043F04043F040400007088FC08300000B8
:105A3000001820FF211E0000F008F000E018000010
:105A400000211C031E211E0000F0088870000000C9
:105A50001E2123241927211010160E00000000001B
:105A60000000000000000000000000E01804020038
:105A7000000000071820400000020418E0000000A9
:105A80000040201807000000404080F080404000A7
:105A90000202010F01020200000000F000000000FD
:105AA0000101011F010101000000000000000000D1
:105AB00080B0700000000000000000000000000046
:105AC00000010101010101010000000000000000CF
:105AD000003030000000000000000000806018046A
